:100000000C94AB000C94C8000C94C8000C94C8006D
:100010000C94C8000C94C8000C94C8000C94C80040
:100020000C94C8000C94C8000C94CA000C94C8002E
:100030000C94C8000C9439010C946D010C94C80008
:100040000C94C8000C94C8000C94C8000C94C80010
:100050000C94C8006E616E00696E660000407A10F4
:10006000F35A00A0724E18090010A5D4E80000E869
:100070007648170000E40B54020000CA9A3B0000C7
:1000800000E1F505000080969800000040420F0056
:100090000000A08601000000102700000000E80317
:1000A000000000006400000000000A0000000000E2
:1000B0000100000000002C76D888DC674F0823DFA1
:1000C000C1DFAE59E1B1B796E5E3E453C63AE65174
:1000D000997696E8E6C28426EB898C9B62ED407C9B
:1000E0006FFCEFBC9C9F40F2BAA56FA5F490055A37
:1000F0002AF75C936B6CF9676DC11BFCE0E40D475C
:10010000FEF520E6B500D0ED902E0300943577057E
:100110000080841E080000204E0A000000C80C3336
:100120003333330F986E12831141EF8D2114893BC5
:10013000E65516CFFEE6DB18D1844B381BF77C1D45
:10014000901DA4BBE424203284725E228100C9F198
:1001500024ECA1E53D2711241FBECFE5D8E0DEBF8A
:10016000CDBF10E0A0E6B0E0E2E5F6E102C0059008
:100170000D92A03EB107D9F721E0A0EEB0E001C09A
:100180001D92A034B207E1F70E94DF020C94270B06
:100190000C9400001F920F920FB60F9211242F9310
:1001A0003F934F935F936F937F938F939F93AF93FF
:1001B000BF93EF93FF938091E1009091E20001964D
:1001C0009093E2008093E1008091E1009091E20041
:1001D000883E934018F1C49881E00E94DA0280EAD8
:1001E0000E94DA028F7090E0982F88279093EC009D
:1001F0008093EB0080E00E94DA022091EB003091C6
:10020000EC00282B3093EC002093EB00C49A81E0A3
:100210008093E5001092E2001092E100FF91EF91CF
:10022000BF91AF919F918F917F916F915F914F910E
:100230003F912F910F900FBE0F901F90189510BCFB
:1002400089B98AB188618AB9579A80B5866880BDB4
:1002500008955D9BFECF0895CF93DF93EC010E943C
:100260002901D0933901C0933801559ADF91CF917C
:1002700008951F920F920FB60F9211248F93EF9350
:10028000FF938CB18093F3008091F2008F3110F0D6
:100290001092F200E091F200F0E08091F300E85E4D
:1002A000FE4F80838091F2008F5F8093F2008091F7
:1002B000F3008A3021F08091F3008D3021F481E049
:1002C0008093F10002C01092F100FF91EF918F91A5
:1002D0000F900FBE0F901F9018951F920F920FB6A0
:1002E0000F9211248F939F93EF93FF93E091380126
:1002F000F09139018081882349F0CF0101969093D4
:1003000039018093380180818CB901C05598FF91E3
:10031000EF919F918F910F900FBE0F901F901895A6
:10032000BB9A8FE797E00197F1F700C00000BB98F8
:10033000E7E1F1E03197F1F700C0000086B3E7E6AE
:10034000F6E03197F1F700C000008870089598E05A
:10035000BB9A80FF0AC020E22A95F1F7BB98EFEF25
:10036000F0E03197F1F700C00AC0EFEEF0E031970E
:10037000F1F700C00000BB98F5E3FA95F1F7000033
:100380008695915029F7089598E080E08695BB9A6C
:1003900020E22A95F1F7BB98E0E3EA95F1F7B399EB
:1003A0008068EBEDF0E03197F1F700C0000091506C
:1003B00069F708950E9490010C949001CF930E94D8
:1003C0009001C82F811107C08CEC0E94A70184E422
:1003D0000E94A70101C0C1E08C2FCF910895CF9357
:1003E000DF930E9490018CEC0E94A7018EEB0E948B
:1003F000A7010E94C401C82FD0E00E94C4019E0141
:10040000382BC901DF91CF910895DA98DB9A9BB31D
:100410009F70282F207F922B9BBB35E03A95F1F7F8
:100420000000DB98EFE8F1E03197F1F700C0000041
:10043000DB9A2BB32F70F0E18F9FC0011124822B28
:100440008BBB35E03A95F1F70000DB988FE891E03F
:100450000197F1F700C0000008958FEF8ABB1BBA27
:100460002FE782E392E0215080409040E1F700C006
:10047000000081E690E090933D0180933C01DA9882
:1004800093E0DB9A8BB38F7080638BBBE5E0EA95DA
:10049000F1F70000DB98EFE1FEE43197F1F700C0DF
:1004A0000000915071F7DB9A8BB38F7080628BBB29
:1004B000F5E0FA95F1F70000DB982FEF81EE94E07C
:1004C000215080409040E1F700C0000088E20E9487
:1004D00005028CE00E94050286E00C94050281E092
:1004E0000E9405028FE39FE10197F1F700C0000031
:1004F0000895DA9ADB9A9BB39F70282F207F922B66
:100500009BBB35E03A95F1F70000DB98EFE8F1E0AE
:100510003197F1F700C00000DB9A2BB32F70F0E1A8
:100520008F9FC0011124822B8BBB35E03A95F1F7E8
:100530000000DB988FE891E00197F1F700C0000020
:1005400008950E94790280E090E0089590E4899FE8
:10055000600D1124862F80680C9405020F931F9361
:10056000CF93DF938A010E94A602E8018991882334
:1005700019F00E947902FACFDF91CF911F910F916C
:100580000895CF93DF93FC018491EF012196882396
:1005900021F00E947902FE01F7CFDF91CF910895FB
:1005A00087B3806B87BB80E188BBBE986E9A6C9ADC
:1005B000689A08958FB9779BFECF8FB108958D9A71
:1005C0008FB582608FBD8EB588618EBD8FB5806816
:1005D0008FBD8EB582608EBD8FE39CE997BD86BDD1
:1005E00087EB9BE09BBD8ABD2FEF87EA91E6215008
:1005F00080409040E1F700C000000E94D002AFEFC1
:10060000B3ED20E3A150B0402040E1F700C000006E
:1006100083E083BF86E08CBF82E089BF789480E06E
:100620000E941F0178948FE690E00E942C010E94A6
:100630002D020E94DA01C7EBDBE031E7432E32E006
:10064000532E48E7642E40E0742E55E0252E6CE8CA
:10065000C62E60E0D62E70E2372EE6EBAE2EE0E03E
:10066000BE2EF8E0EF2EF1E0FF2EACE98A2EA0E0DE
:100670009A2E0E94DE01B39BFECF0E94EF018C01F7
:1006800060E080E00E94A60298012F703327249D2D
:10069000C001259D900D349D900D11249F938F9343
:1006A000C80124E0959587952A95E1F79F938F934C
:1006B0007F926F920E94910A8091E5000F900F90B7
:1006C0000F900F900F900F908823B9F18091EB005D
:1006D0009091EC00289EB001299E700D112480E0BD
:1006E00090E00E94FE0720E030E040E859E30E94DD
:1006F0008D086093E7007093E8008093E900909381
:10070000EA0020E030E040EA51E40E948D080E94B7
:10071000CF076093E6001092E50060E081E00E9460
:10072000A6028091E6001F928F93DF92CF920E94E3
:10073000910A0F900F900F900F908091F1008823F5
:1007400009F45CC044E050E067E970E088E191E0C2
:100750000E943C0A892B21F5B801012E000C880B60
:10076000990B0E94000820E030E040E85DE30E9421
:100770008D089F938F937F936F939F928F92FF9299
:10078000EF920E94A70A88E091E00E942C018DB7A9
:100790009EB708960FB6F8949EBF0FBE8DBF23C0BC
:1007A00044E050E061EB70E088E191E00E943C0A97
:1007B000892BA9F48091E6001F928F93BF92AF928C
:1007C000FF92EF920E94A70A88E091E00E942C011C
:1007D0000F900F900F900F900F900F9004C08AEC25
:1007E00090E00E942C011092F1001092F200E8E1DA
:1007F000F1E0DF01232D1D922A95E9F78091E600B3
:100800008734A8F4B801012E000C880B990B0E94C4
:10081000000820E030E040E85DE30E948D0820E021
:1008200030E048EC51E40E94880887FD0EC0C539CD
:1008300091E1D90750F42196DBBDCABD8FEC97E05A
:100840000197F1F700C00000F2CF8091E6008634F6
:1008500008F00FCFB801110F880B990B0E94000808
:1008600020E030E040E85DE30E948D0820E030E0C9
:1008700048EC51E40E94CA0787FFFBCECC3DB5E0AF
:10088000DB0708F4F6CE2197DBBDCABDAFECB7E0BD
:100890001197F1F700C00000F1CFA0E1B0E0E3E56F
:1008A000F4E00C9422097C011B016A01FC0117820F
:1008B0001682838181FF44C39E012F5F3F4F390120
:1008C000F7019381F10193FD859193FF81911F01C0
:1008D000882309F431C3853239F493FD859193FF60
:1008E00081911F01853239F4B70190E00E94550AC9
:1008F00056016501E5CF10E0512C912CFFE1F9156F
:10090000D8F08B3279F038F4803279F08332A1F468
:10091000F92DF0612EC08D3261F0803369F4292DFC
:1009200021602DC0392D3260932E892D8460982E40
:100930002AC0E92DE86015C097FC2DC020ED280FD6
:100940002A3088F496FE06C03AE0139F200D112449
:10095000122F19C08AE0589E200D1124522EE92D25
:10096000E0629E2E10C08E3231F496FCE5C2F92D65
:10097000F0649F2E08C08C3621F4292D2068922E19
:1009800002C0883641F4F10193FD859193FF819176
:100990001F018111B3CF9BEB980F933020F4992D59
:1009A0009061805E07C09BE9980F933008F066C1A4
:1009B000992D9F7E96FF16E09F73992E853619F428
:1009C0009064992E08C0863621F4392F3068932E12
:1009D00002C01111115097FE07C01C3350F444247B
:1009E0004394410E27E00BC0183038F027E017E0A1
:1009F00005C027E09CE3492E02C0212F412C56015F
:100A000084E0A80EB11CF60160817181828193811E
:100A1000042DA3010E9459096C01F981FC87F0FFA4
:100A200002C0F3FF06C091FC06C092FE06C000E2C1
:100A300005C00DE203C00BE201C000E08C858C70A4
:100A400019F001115AC29BC297FE10C04C0CFC85D4
:100A5000F4FF04C08A81813309F44A94141474F5B4
:100A600028E0241578F588E0482E2CC096FC2AC092
:100A7000812F90E08C159D059CF03CEFC3163FEF55
:100A8000D30674F0892D8068982E0AC0E2E0F0E069
:100A9000EC0FFD1FE10FF11D8081803319F411501F
:100AA0001111F4CF97FE0EC044244394410E812FC0
:100AB00090E0C816D9062CF41C1904C044244394B1
:100AC00001C010E097FE06C01C141D0434F4C601DA
:100AD000019605C085E090E002C081E090E0011140
:100AE0000196112331F0212F30E02F5F3F4F820F0D
:100AF000931F252D30E08217930714F4581A01C074
:100B0000512C892D897049F4552039F0B70180E2C4
:100B100090E00E94550A5A94F7CF002329F0B701BC
:100B2000802F90E00E94550A93FC09C0552039F0AF
:100B3000B70180E390E00E94550A5A94F7CF97FEE0
:100B40004CC04601D7FE02C0812C912CC6018819E9
:100B50009909F301E80FF91FFE87ED879601241923
:100B60003109388B2F87012F10E01195019511095C
:100B70003FEF8316930629F4B7018EE290E00E94BE
:100B8000550AC814D9044CF08F85988988159905A1
:100B900024F4ED85FE85818101C080E3F1E08F1AA8
:100BA00091082D853E852F5F3F4F3E872D8780160C
:100BB00091062CF0B70190E00E94550AD9CFC814D5
:100BC000D90441F49A81963320F4953319F43C8585
:100BD00034FF81E3B70190E04EC08A81813319F080
:100BE0009C859F7E9C87B70190E00E94550A111159
:100BF00005C094FC18C085E690E017C0B7018EE2EE
:100C000090E00E94550A1E5F82E001E0080FF301A8
:100C1000E80FF11D8081B70190E00E94550A802FF6
:100C20000113F3CFE6CF85E490E0B7010E94550AA7
:100C3000D7FC06C0C114D10441F4EC85E4FF05C023
:100C4000D194C194D1088DE201C08BE2B70190E04C
:100C50000E94550A80E32AE0C216D1042CF08F5F6F
:100C6000FAE0CF1AD108F7CFB70190E00E94550AF9
:100C7000B701C601C0960E94550A54C1833631F0AF
:100C8000833779F0833509F056C020C0560132E031
:100C9000A30EB11CF6018081898301E010E063019D
:100CA00012C05601F2E0AF0EB11CF601C080D18037
:100CB00096FE03C0612F70E002C06FEF7FEFC601A8
:100CC0000E944A0A8C01F92DFF7714C0560122E0D8
:100CD000A20EB11CF601C080D18096FE03C0612F28
:100CE00070E002C06FEF7FEFC6010E94310A8C01F5
:100CF000F92DF0689F2EF3FD1AC0852D90E008179E
:100D00001907A8F4B70180E290E00E94550A5A94AE
:100D1000F4CFF60197FC859197FE81916F01B701A1
:100D200090E00E94550A51105A9401501109011582
:100D3000110579F7F7C0843611F0893661F556014F
:100D400097FE09C024E0A20EB11CF60160817181FA
:100D5000828193810AC0F2E0AF0EB11CF60160817E
:100D60007181072E000C880B990BF92DFF769F2EB1
:100D700097FF09C090958095709561957F4F8F4F33
:100D80009F4FF0689F2E2AE030E0A3010E94C90A1D
:100D9000C82EC6183FC0092D853721F40F7E2AE0E2
:100DA00030E01DC0097F8F3691F018F4883559F076
:100DB000C3C0803719F0883711F0BEC0006104FF4E
:100DC00009C0046007C094FE08C0066006C028E0A1
:100DD00030E005C020E130E002C020E132E0560101
:100DE00007FF09C084E0A80EB11CF6016081718183
:100DF0008281938108C0F2E0AF0EB11CF6016081E0
:100E0000718180E090E0A3010E94C90AC82EC61833
:100E10000F77902E96FE0BC0092D0E7FC11650F451
:100E200094FE0AC092FC08C0092D0E7E05C0DC2C81
:100E3000092D03C0DC2C01C0D12E04FF0DC0FE0122
:100E4000EC0DF11D8081803311F4097E09C002FF91
:100E500006C0D394D39404C0802F867809F0D3942D
:100E600003FD11C000FF06C01C2DD51480F4150D24
:100E70001D190DC0D51458F4B70180E290E00E940E
:100E8000550AD394F7CFD51410F45D1801C0512C36
:100E900004FF10C0B70180E390E00E94550A02FFF2
:100EA00017C001FD03C088E790E002C088E590E02C
:100EB000B7010CC0802F867859F001FF02C08BE289
:100EC00001C080E207FD8DE2B70190E00E94550A63
:100ED000C11638F4B70180E390E00E94550A115022
:100EE000F7CFCA94F301EC0DF11D8081B70190E0BA
:100EF0000E94550AC110F5CF15C0F4E0F51560F554
:100F000084E0581A93FE1FC0011127C02C8523FFCF
:100F10002AC004E510E0392D3071932EF801849138
:100F2000811124C0552009F4E4CCB70180E290E09F
:100F30000E94550A5A94F6CFF7018681978126C000
:100F40008FEF9FEF23C0B70180E290E00E94550A27
:100F50005A945110F8CFD8CF512CB701802F90E080
:100F60000E94550AD3CF08E510E0D5CF91108052EA
:100F7000B70190E00E94550A0F5F1F4FCFCF23E0CB
:100F8000251510F483E0BDCF512CC0CF6096E2E16F
:100F90000C943E090E943B0808F481E008950E94E9
:100FA000670888F09F5798F0B92F9927B751B0F08C
:100FB000E1F0660F771F881F991F1AF0BA95C9F7DD
:100FC00014C0B13091F00E948108B1E008950C94F2
:100FD0008108672F782F8827B85F39F0B93FCCF3A5
:100FE000869577956795B395D9F73EF4909580955A
:100FF000709561957F4F8F4F9F4F0895E89409C07A
:1010000097FB3EF490958095709561957F4F8F4F3B
:101010009F4F9923A9F0F92F96E9BB279395F69551
:10102000879577956795B795F111F8CFFAF4BB0FCF
:1010300011F460FF1BC06F5F7F4F8F4F9F4F16C033
:10104000882311F096E911C0772321F09EE8872FBD
:10105000762F05C0662371F096E8862F70E060E079
:101060002AF09A95660F771F881FDAF7880F9695F2
:10107000879597F90895990F0008550FAA0BE0E896
:10108000FEEF16161706E807F907C0F0121613064A
:10109000E407F50798F0621B730B840B950B39F48A
:1010A0000A2661F0232B242B252B21F408950A26F0
:1010B00009F4A140A6958FEF811D811D089557FD6C
:1010C0009058440F551F59F05F3F71F04795880FB6
:1010D00097FB991F61F09F3F79F08795089512164D
:1010E00013061406551FF2CF4695F1DF08C01616F9
:1010F00017061806991FF1CF8695710561050894AA
:101100000895E894BB2766277727CB0197F90895C0
:101110000E943B0808F48FEF08950E94A0080C94E9
:1011200011090E94030938F00E940A0920F0952352
:1011300011F00C94FA080C94000911240C94820804
:101140000E945F0870F3959FC1F3950F50E0551F03
:10115000629FF001729FBB27F00DB11D639FAA270C
:10116000F00DB11DAA1F649F6627B00DA11D661F5B
:10117000829F2227B00DA11D621F739FB00DA11D7C
:10118000621F839FA00D611D221F749F3327A00D36
:10119000611D231F849F600D211D822F762F6A2FD2
:1011A00011249F5750409AF0F1F088234AF0EE0F37
:1011B000FF1FBB1F661F771F881F91505040A9F764
:1011C0009E3F510580F00C94FA080C9482085F3F12
:1011D000E4F3983ED4F3869577956795B795F795A0
:1011E000E7959F5FC1F7FE2B880F911D9695879518
:1011F00097F9089597F99F6780E870E060E0089597
:101200009FEF80EC089500240A941616170618061E
:101210000906089500240A941216130614060506FA
:101220000895092E0394000C11F4882352F0BB0F8B
:1012300040F4BF2B11F460FF04C06F5F7F4F8F4FEE
:101240009F4F08952F923F924F925F926F927F929D
:101250008F929F92AF92BF92CF92DF92EF92FF92C6
:101260000F931F93CF93DF93CDB7DEB7CA1BDB0B72
:101270000FB6F894DEBF0FBECDBF09942A88398817
:1012800048885F846E847D848C849B84AA84B9841E
:10129000C884DF80EE80FD800C811B81AA81B9812A
:1012A000CE0FD11D0FB6F894DEBF0FBECDBFED013E
:1012B0000895283008F027E03327DA01990F311D0F
:1012C00087FD916000966105710539F432602E5FEB
:1012D0003D9330E32A95E1F708959F3F30F0803841
:1012E0007105610509F03C5F3C5F3D93913008F06A
:1012F0008068911DDF93CF931F930F93FF92EF921E
:10130000192F987F9695E92F96959695E90FFF27C7
:10131000EA54FF4F99273327EE24FF24A701E70162
:1013200005900894079428F4360FE71EF81E491F0D
:10133000511D660F771F881F991F0694A1F705900E
:10134000079428F4E70EF81E491F561FC11D770F9A
:10135000881F991F661F0694A1F70590079428F42B
:10136000F80E491F561FC71FD11D880F991F661FF2
:10137000771F0694A1F70590079420F4490F561F94
:10138000C71FD81F990F661F771F881F0694A9F7DC
:1013900084911095177041F0D695C795579547954C
:1013A000F794E7941A95C1F7ECE5F0E0689415908E
:1013B000159135916591959105907FE27395E118AE
:1013C000F10A430B560BC90BD009C0F7E10CF11E13
:1013D000431F561FC91FD01D7EF4703311F48A9528
:1013E000E6CFE894015030F0080F0AF40027021706
:1013F00008F4202F2395022F7A3328F079E37D9388
:101400002A95E9F710C07D932A9589F60694979559
:101410006795379517951794E118F10A430B560B0A
:10142000C90BD00998F023957E9173957A3308F013
:1014300070E37C932013B8F77E9170617D9330F058
:10144000839571E37D9370E32A95E1F71124EF9082
:10145000FF900F911F91CF91DF91992787FD909574
:101460000895FC010590615070400110D8F78095F7
:1014700090958E0F9F1F0895FB01DC014150504055
:1014800030F08D910190801919F40020B9F7881B74
:10149000990B0895FC016150704001900110D8F73C
:1014A000809590958E0F9F1F08950F931F93CF9354
:1014B000DF93FB01238121FD03C08FEF9FEF2CC041
:1014C00022FF16C046815781248135814217530778
:1014D00044F4A081B1819D012F5F3F4F3183208370
:1014E0008C93268137812F5F3F4F3783268314C02B
:1014F0008B01EC01FB010084F185E02D0995892B1E
:10150000E1F6D80116968D919C9117970196179642
:101510009C938E931697CE01DF91CF911F910F91DF
:101520000895A0E0B0E0E7E9FAE00C943209AE01DA
:101530004B5F5F4FFA0161917191AF0180913C0166
:1015400090913D010E944D04E2E00C944E09AEE002
:10155000B0E0EDEAFAE00C9430090D891E8986E0CE
:101560008C831A8309838FEF9FE79E838D83AE015F
:10157000475E5F4F6F89788DCE0101960E944D04C2
:10158000EF81F885E00FF11F10822E96E4E00C94B5
:101590004C09FA01AA27283051F1203181F1E89451
:1015A0006F936E7F6E5F7F4F8F4F9F4FAF4FB1E056
:1015B0003ED0B4E03CD0670F781F891F9A1FA11D51
:1015C000680F791F8A1F911DA11D6A0F711D811D52
:1015D000911DA11D20D009F468943F912AE0269F17
:1015E00011243019305D3193DEF6CF010895462F76
:1015F0004770405D4193B3E00FD0C9F7F6CF462F57
:101600004F70405D4A3318F0495D31FD40524193BF
:1016100002D0A9F7EACFB4E0A6959795879577957C
:101620006795BA95C9F700976105710508959B0103
:10163000AC010A2E06945795479537952795BA958C
:10164000C9F7620F731F841F951FA01D0895F8949A
:02165000FFCFCA
:10165200020000000200000000A102000000004899
:10166200656C6C6F210D0A00543D2533642E2530C4
:10167200346420DF432020202020200057496C675B
:101682003A20256420250074656D70000D0A543DD2
:1016920025352E316620DF4320202020200D0A2010
:1016A2000077696C67000D0A57696C67203D202539
:1016B2006420202020200D0A20000D0A556E6B6E3A
:1016C2006F776E20636F6D6D616E640D0A2000008E
:00000001FF
